:020000040800F2
:10000000002800207D0F00080D0F0008130F0008C6
:10001000190F00081F0F0008250F0008000000003E
:100020000000000000000000000000002B0F00088E
:10003000370F000800000000430F00084F0F0008B2
:10004000C50F0008C50F0008C50F0008C50F000840
:10005000C50F0008C50F0008C50F0008C50F000830
:10006000C50F0008C50F0008C50F0008C50F000820
:10007000C50F0008C50F0008C50F0008C50F000810
:10008000C50F0008C50F0008C50F0008C50F000800
:10009000C50F0008C50F0008C50F0008C50F0008F0
:1000A000C50F0008C50F0008C50F0008C50F0008E0
:1000B0005D0F0008C50F000800000000C50F000814
:1000C000C50F00080000000000000000C50F000878
:1000D00000000000C50F0008C50F00080000000068
:1000E000C50F0008C50F0008C50F0008000000007C
:1000F0000000000000000000000000000000000000
:0C01000000000000000000005FF808F1A3
:10010C0010B5054C237833B9044B13B10448AFF345
:10011C0000800123237010BD0C00002000000000A3
:10012C00E025000808B5034B1BB103490348AFF3A6
:10013C00008008BD0000000010000020E025000831
:10014C0080B582B000AF78607B68092B00F28081AB
:10015C0001A252F823F000BF8D010008D501000860
:10016C001D02000865020008AD020008F502000837
:10017C003D03000885030008CD03000815040008A2
:10018C0000220121B44801F003FA00220221B248F6
:10019C0001F0FEF900220421AF4801F0F9F9002228
:1001AC000821AD4801F0F4F900221021AA4801F011
:1001BC00EFF900222021A84801F0EAF901224021A0
:1001CC00A54801F0E5F943E101220121A24801F023
:1001DC00DFF900220221A04801F0DAF90022042103
:1001EC009D4801F0D5F9012208219B4801F0D0F976
:1001FC0001221021984801F0CBF9012220219648C8
:10020C0001F0C6F901224021934801F0C1F91FE128
:10021C0000220121904801F0BBF9002202218E48F6
:10022C0001F0B6F9012204218B4801F0B1F900224A
:10023C000821894801F0ACF900221021864801F010
:10024C00A7F901222021844801F0A2F900224021C3
:10025C00814801F09DF9FBE0002201217E4801F06C
:10026C0097F9002202217C4801F092F90022042126
:10027C00794801F08DF900220821774801F088F9BE
:10028C0001221021744801F083F9012220217248C7
:10029C0001F07EF9002240216F4801F079F9D7E096
:1002AC00012201216C4801F073F9002202216A48F5
:1002BC0001F06EF900220421674801F069F901226E
:1002CC000821654801F064F901221021624801F00F
:1002DC005FF900222021604801F05AF900224021E8
:1002EC005D4801F055F9B3E0002201215A4801F0B4
:1002FC004FF901220221584801F04AF90022042149
:10030C00554801F045F900220821534801F040F905
:10031C0001221021504801F03BF9002220214E48C7
:10032C0001F036F9002240214B4801F031F98FE001
:10033C0000220121484801F02BF9012202214648F4
:10034C0001F026F900220421434801F021F9002292
:10035C000821414801F01CF9002210213E4801F00F
:10036C0017F9002220213C4801F012F9002240210B
:10037C00394801F00DF96BE000220121364801F0FB
:10038C0007F900220221344801F002F9002204216D
:10039C00314801F0FDF8012208212F4801F0F8F84E
:1003AC00012210212C4801F0F3F8012220212A48C7
:1003BC0001F0EEF801224021274801F0E9F847E06E
:1003CC0000220121244801F0E3F8002202212248F6
:1003DC0001F0DEF8002204211F4801F0D9F80022B8
:1003EC0008211D4801F0D4F8002210211A4801F010
:1003FC00CFF800222021184801F0CAF80022402131
:10040C00154801F0C5F823E000220121124801F043
:10041C00BFF800220221104801F0BAF80022042192
:10042C000D4801F0B5F8002208210B4801F0B0F896
:10043C0001221021084801F0ABF8002220210648C7
:10044C0001F0A6F800224021034801F0A1F800BFFA
:10045C0000BF0837BD4680BD000C014080B483B09E
:10046C0000AF786039607B68184A82FB03129210E7
:10047C00DB17D31A164A13607968144B83FB0123DC
:10048C009A10CB17D21A13469B0013445B00CA1A5E
:10049C000F4B5A603B680D4A82FB03129210DB171C
:1004AC00D31A0B4A93603968084B83FB01239A10CB
:1004BC00CB17D21A13469B0013445B00CA1A044B89
:1004CC00DA6000BF0C37BD4680BC70476766666655
:1004DC005800002080B582B000AF78607B68032B99
:1004EC0000F2848001A252F823F000BF0905000835
:1004FC004505000881050008BD05000800224021C3
:10050C003D4801F045F8012280213B4801F040F8BC
:10051C0001224FF48071384801F03AF801224FF46F
:10052C000071354801F034F8344A7B6852F82330B6
:10053C001846FFF705FE5AE0012240212E4801F033
:10054C0027F8002280212C4801F022F801224FF4D8
:10055C008071294801F01CF801224FF400712648E3
:10056C0001F016F8254A7B6852F823301846FFF73D
:10057C00E7FD3CE0012240211F4801F009F801226F
:10058C0080211D4801F004F800224FF480711A48B4
:10059C0000F0FEFF01224FF40071174800F0F8FF45
:1005AC00164A7B6852F823301846FFF7C9FD1EE047
:1005BC0001224021104800F0EBFF012280210E485F
:1005CC0000F0E6FF01224FF480710B4800F0E0FFD1
:1005DC0000224FF40071084800F0DAFF074A7B68EC
:1005EC0052F823301846FFF7ABFD00E000BF00BF08
:1005FC000837BD4680BD00BF0008014058000020F0
:10060C0080B582B000AF7860786800F00BF80022FB
:10061C000421034800F0BCFF00BF0837BD4680BD75
:10062C000008014080B582B000AF78607B68072B72
:10063C0000F28C8101A252F823F000BF6906000879
:10064C00C70600082507000883070008E107000813
:10065C003F0800089D080008FB0800080022042140
:10066C00BD4800F095FF01220821BB4800F090FF27
:10067C0001224FF48061B84800F08AFF01224FF448
:10068C000061B54800F084FF01224FF48051B2485C
:10069C0000F07EFF01224FF40051AF4800F078FFCC
:1006AC0001224FF48041AC4800F072FF01224FF45C
:1006BC000041A94800F06CFF49E101220421A64841
:1006CC0000F066FF00220821A34800F061FF012220
:1006DC004FF48061A04800F05BFF01224FF40061F1
:1006EC009D4800F055FF01224FF480519A4800F0CC
:1006FC004FFF01224FF40051974800F049FF0122AF
:10070C004FF48041944800F043FF01224FF4004124
:10071C00914800F03DFF1AE1012204218E4800F0BF
:10072C0037FF012208218C4800F032FF00224FF4E1
:10073C008061894800F02CFF01224FF4006186484B
:10074C0000F026FF01224FF48051834800F020FF77
:10075C0001224FF40051804800F01AFF01224FF49F
:10076C0080417D4800F014FF01224FF400417A488B
:10077C0000F00EFFEBE001220421774800F008FFA7
:10078C0001220821744800F003FF01224FF480611C
:10079C00714800F0FDFE00224FF400616E4800F03D
:1007AC00F7FE01224FF480516B4800F0F1FE01225C
:1007BC004FF40051684800F0EBFE01224FF48041E9
:1007CC00654800F0E5FE01224FF40041624800F05C
:1007DC00DFFEBCE0012204215F4800F0D9FE0122BB
:1007EC0008215D4800F0D4FE01224FF480615A4884
:1007FC0000F0CEFE01224FF40061574800F0C8FE15
:10080C0000224FF48051544800F0C2FE01224FF4F4
:10081C000051514800F0BCFE01224FF480414E487B
:10082C0000F0B6FE01224FF400414B4800F0B0FE40
:10083C008DE001220421484800F0AAFE0122082183
:10084C00454800F0A5FE01224FF48061424800F0BB
:10085C009FFE01224FF400613F4800F099FE0122F7
:10086C004FF480513C4800F093FE00224FF40051AD
:10087C00394800F08DFE01224FF48041364800F0DB
:10088C0087FE01224FF40041334800F081FE5EE008
:10089C0001220421304800F07BFE012208212E4861
:1008AC0000F076FE01224FF480612B4800F070FEC0
:1008BC0001224FF40061284800F06AFE01224FF437
:1008CC008051254800F064FE01224FF4005122486B
:1008DC0000F05EFE00224FF480411F4800F058FEED
:1008EC0001224FF400411C4800F052FE2FE001227F
:1008FC000421194800F04CFE01220821164800F092
:10090C0047FE01224FF48061134800F041FE0122A2
:10091C004FF40061104800F03BFE01224FF480516F
:10092C000D4800F035FE01224FF400510A4800F04A
:10093C002FFE01224FF48041074800F029FE0022CF
:10094C004FF40041044800F023FE00E000BF00BF5C
:10095C000837BD4680BD00BF0008014080B586B099
:10096C0000AF00F02BFB00F091F800F017F900F04D
:10097C00C9F83F4801F06AFA012000F0D9F90120CA
:10098C0000F072F9012000F083F9012000F094F9D5
:10099C00012000F0A5F9012000F0B6F90F237B61CE
:1009AC0008233B613223FB600023BB6000237B6088
:1009BC00304B1B68012B06D1642000F055F9202127
:1009CC002D4800F0FDFD2D4B1B68012B06D164203A
:1009DC0000F05EF91021284800F0F2FD284B1B684E
:1009EC00012B1ED139697869FFF738FD642000F0BE
:1009FC0063F9FB680133FB60FB683B2B11DD0023C3
:100A0C00FB603B6901333B613B693B2B09DD0023F8
:100A1C003B617B6901337B617B69172B01DD002313
:100A2C007B61184B1B68012B0ED10A2000F080F95A
:100A3C007868FFF74FFD7B68022B02DD00237B609B
:100A4C0002E07B6801337B600F4B1B68012BAFD13D
:100A5C000C2000F045F9BB680133BB60BB68092B67
:100A6C0001D10023BB60B868FFF7CAFDA0E700BF47
:100A7C00680000202C0000200008014034000020F9
:100A8C003C000020540000204400002080B590B0B1
:100A9C0000AF07F1180328220021184601F092FD3F
:100AAC003B1D00221A605A609A60DA601A610223B8
:100ABC00BB610123BB621023FB6200237B6307F144
:100ACC001803184600F096FD0346002B01D000F0E9
:100ADC00C5F80F237B600023BB600023FB60002361
:100AEC003B6100237B613B1D0021184601F002F89D
:100AFC000346002B01D000F0B1F800BF4037BD46D3
:100B0C0080BD000080B586B000AF07F1080300225D
:100B1C001A605A609A60DA603B4600221A605A608A
:100B2C001D4B4FF080421A601B4B41F63F725A60CE
:100B3C00194B00229A60184B0922DA60164B0022DE
:100B4C001A61154B00229A61134801F02FF90346E4
:100B5C00002B01D000F082F84FF48053BB6007F1FA
:100B6C00080319460C4801F0C5FA0346002B01D0C6
:100B7C0000F074F800233B6000237B603B46194671
:100B8C00054801F091FC0346002B01D000F066F8FB
:100B9C0000BF1837BD4680BD6800002080B586B008
:100BAC0000AF07F1080300221A605A609A60DA60FD
:100BBC00224B9B69214A43F0040393611F4B9B69B1
:100BCC0003F004037B607B681C4B9B691B4A43F05E
:100BDC0008039361194B9B6903F008033B603B6866
:100BEC0000224FF6FC71164800F0D2FC00224FF6A2
:100BFC007F71144800F0CCFC4FF6FC73BB600123F2
:100C0C00FB6000233B6102237B6107F1080319465B
:100C1C000B4800F043FB4FF67F73BB600123FB6076
:100C2C0000233B6102237B6107F108031946054849
:100C3C0000F034FB00BF1837BD4680BD00100240E9
:100C4C0000080140000C014080B582B000AF786014
:100C5C0000F082F800BF0837BD4680BD80B400AFFD
:100C6C0072B600BFFEE7000080B483B000AF7860BE
:100C7C00054A7B681360054B00221A6000BF0C37D5
:100C8C00BD4680BC704700BF280000202C0000200F
:100C9C0080B483B000AF7860054A7B681360054B65
:100CAC0000221A6000BF0C37BD4680BC704700BFE5
:100CBC00300000203400002080B483B000AF786096
:100CCC00054A7B681360054B00221A6000BF0C3785
:100CDC00BD4680BC704700BF380000203C0000209F
:100CEC0080B483B000AF7860054A7B681360054B15
:100CFC0000221A6000BF0C37BD4680BC704700BF95
:100D0C00400000204400002080B483B000AF786025
:100D1C00054A7B681360054B00221A6000BF0C3734
:100D2C00BD4680BC704700BF480000204C0000202E
:100D3C0080B483B000AF7860054A7B681360054BC4
:100D4C0000221A6000BF0C37BD4680BC704700BF44
:100D5C00500000205400002080B400AF314B1B68C1
:100D6C00002B0BDD2F4B1B68013B2E4A13602D4BC8
:100D7C001B68002B02DC2C4B01221A602B4B1B68CE
:100D8C00002B0BDD294B1B68013B284A1360274BBA
:100D9C001B68002B02DC264B01221A60254B1B68BA
:100DAC00002B0BDD234B1B68013B224A1360214BAC
:100DBC001B68002B02DC204B01221A601F4B1B68A6
:100DCC00002B0BDD1D4B1B68013B1C4A13601B4B9E
:100DDC001B68002B02DC1A4B01221A60194B1B6892
:100DEC00002B0BDD174B1B68013B164A1360154B90
:100DFC001B68002B02DC144B01221A60134B1B687E
:100E0C00002B0BDD114B1B68013B104A13600F4B81
:100E1C001B68002B02D10E4B01221A6000BFBD468D
:100E2C0080BC7047280000202C00002030000020DF
:100E3C0034000020380000203C000020400000203E
:100E4C0044000020480000204C00002050000020EE
:100E5C005400002080B485B000AF154B9B69144A38
:100E6C0043F001039361124B9B6903F00103BB60D8
:100E7C00BB680F4BDB690E4A43F08053D3610C4BBC
:100E8C00DB6903F080537B607B680A4B5B68FB601B
:100E9C00FB6823F0E063FB60FB6843F08063FB605E
:100EAC00044AFB68536000BF1437BD4680BC7047D2
:100EBC00001002400000014080B584B000AF7860A3
:100ECC007B681B68B3F1804F13D10C4BDB690B4A69
:100EDC0043F00103D361094BDB6903F00103FB60B1
:100EEC00FB68002200211C2000F0A1F91C2000F05E
:100EFC00BAF900BF1037BD4680BD00BF00100240DC
:100F0C0080B400AFFEE780B400AFFEE780B400AF62
:100F1C00FEE780B400AFFEE780B400AFFEE780B41C
:100F2C0000AF00BFBD4680BC704780B400AF00BFAF
:100F3C00BD4680BC704780B400AF00BFBD4680BCCE
:100F4C00704780B500AF00F07FF800BF80BD000097
:100F5C0080B500AF024800F0C5FF00BF80BD00BFE8
:100F6C006800002080B400AF00BFBD4680BC704755
:100F7C00FFF7F8FF0B480C490C4A002302E0D45849
:100F8C00C4500433C4188C42F9D3094A094C0023C9
:100F9C0001E013600432A242FBD301F0EFFAFFF739
:100FAC00DDFC7047000000200C0000202426000807
:100FBC000C000020B4000020FEE7000080B500AF5C
:100FCC00084B1B68074A43F010031360032000F022
:100FDC0023F90F2000F008F8FFF73CFF0023184618
:100FEC0080BD00BF0020024080B582B000AF7860A9
:100FFC00124B1A68124B1B7819464FF47A73B3FBD9
:10100C00F1F3B2FBF3F3184600F03BF90346002B67
:10101C0001D001230EE07B680F2B0AD800227968DF
:10102C004FF0FF3000F003F9064A7B681360002391
:10103C0000E0012318460837BD4680BD00000020A3
:10104C00080000200400002080B400AF054B1B7882
:10105C001A46054B1B681344034A136000BFBD4678
:10106C0080BC704708000020B000002080B400AFA6
:10107C00024B1B681846BD4680BC7047B000002070
:10108C0080B485B000AF78607B6803F00703FB6029
:10109C000C4BDB68BB60BA684FF6FF031340BB60B8
:1010AC00FB681A02BB68134343F0BF6343F400337D
:1010BC00BB60044ABB68D36000BF1437BD4680BC1C
:1010CC00704700BF00ED00E080B400AF044BDB685C
:1010DC001B0A03F007031846BD4680BC704700BFCF
:1010EC0000ED00E080B483B000AF0346FB7197F9CC
:1010FC000730002B0BDBFB7903F01F02064997F935
:10110C0007305B09012000FA02F241F8232000BFEE
:10111C000C37BD4680BC704700E100E080B483B062
:10112C0000AF03463960FB7197F90730002B0ADBDF
:10113C003B68DAB20C4997F907301201D2B20B4472
:10114C0083F800230AE03B68DAB20849FB7903F024
:10115C000F03043B1201D2B20B441A7600BF0C37BA
:10116C00BD4680BC704700BF00E100E000ED00E030
:10117C0080B489B000AFF860B9607A60FB6803F0A6
:10118C000703FB61FB69C3F10703042B28BF04238E
:10119C00BB61FB690433062B02D9FB69033B00E0FE
:1011AC0000237B614FF0FF32BB6902FA03F3DA4391
:1011BC00BB681A407B699A404FF0FF317B6901FA9A
:1011CC0003F3D9437B680B40134318462437BD46C1
:1011DC0080BC704780B582B000AF78607B68013B03
:1011EC00B3F1807F01D301230FE00A4A7B68013BF6
:1011FC0053600F214FF0FF30FFF790FF054B00229B
:10120C009A60044B07221A60002318460837BD4623
:10121C0080BD00BF10E000E080B582B000AF786008
:10122C007868FFF72DFF00BF0837BD4680BD80B53D
:10123C0086B000AF0346B9607A60FB7300237B6114
:10124C00FFF742FF78617A68B9687869FFF790FF19
:10125C00024697F90F3011461846FFF75FFF00BFA3
:10126C001837BD4680BD80B582B000AF0346FB7118
:10127C0097F907301846FFF735FF00BF0837BD4612
:10128C0080BD80B582B000AF78607868FFF7A2FFB0
:10129C00034618460837BD4680BD000080B48BB0AD
:1012AC0000AF7860396000237B6200233B6248E129
:1012BC0001227B6A02FA03F3FB613B681B68FA6943
:1012CC001340BB61BA69FB699A4240F037813B68B5
:1012DC005B68A34A93425ED0A14A934275D8A14A57
:1012EC00934258D09F4A93426FD89F4A934252D010
:1012FC009D4A934269D89D4A93424CD09B4A934253
:10130C0063D89B4A934246D0994A93425DD8122B9C
:10131C002AD8122B59D801A252F823F0A313000893
:10132C007D1300088F130008D1130008D713000891
:10133C00D7130008D7130008D7130008D7130008D9
:10134C00D7130008D7130008D7130008D7130008C9
:10135C00D7130008D7130008D7130008D7130008B9
:10136C008513000899130008824A934213D02CE08D
:10137C003B68DB683B6229E03B68DB6804333B621B
:10138C0024E03B68DB6808333B621FE03B68DB68AA
:10139C000C333B621AE03B689B68002B02D10423A0
:1013AC003B6213E03B689B68012B05D108233B6231
:1013BC007B68FA691A6109E008233B627B68FA6969
:1013CC005A6103E000233B6200E000BFBB69FF2BC6
:1013DC0001D87B6801E07B6804337B61BB69FF2B20
:1013EC0002D87B6A9B0002E07B6A083B9B003B6156
:1013FC007B691A680F213B6901FA03F3DB431A403E
:10140C00396A3B6901FA03F31A437B691A603B683A
:10141C005B6803F08053002B00F09080564B9B6967
:10142C00554A43F001039361534B9B6903F001034D
:10143C00BB60BB68514A7B6A9B08023352F823306D
:10144C00FB607B6A03F003039B000F2202FA03F399
:10145C00DB43FA681340FB607B68494A93420DD02A
:10146C007B68484A934207D07B68474A934201D134
:10147C00022304E0032302E0012300E000237A6A44
:10148C0002F0030292009340FA681343FB603B495D
:10149C007B6A9B080233FA6841F823203B685B683F
:1014AC0003F48013002B06D0384B9A683749BB697C
:1014BC0013438B6006E0354B9A68BB69DB433349B9
:1014CC0013408B603B685B6803F40013002B06D061
:1014DC002E4BDA682D49BB691343CB6006E02B4BCE
:1014EC00DA68BB69DB4329491340CB603B685B6816
:1014FC0003F40033002B06D0244B5A682349BB69F4
:10150C0013434B6006E0214B5A68BB69DB431F4910
:10151C0013404B603B685B6803F48033002B06D0B0
:10152C001A4B1A681949BB6913430B6006E0174B39
:10153C001A68BB69DB43154913400B607B6A0133A6
:10154C007B623B681A687B6A22FA03F3002B7FF4F8
:10155C00AFAE00BF00BF2C37BD4680BC704700BF8C
:10156C000000321000003110000022100000211089
:10157C000000121000001110001002400000014089
:10158C0000080140000C0140001001400004014023
:10159C0080B483B000AF78600B467B8013467B70C1
:1015AC007B78002B03D07A887B681A6103E07B88F8
:1015BC001A047B681A6100BF0C37BD4680BC7047AB
:1015CC0080B485B000AF78600B467B807B68DB68AD
:1015DC00FB607A88FB6813401A04FB68D9437B884C
:1015EC000B401A437B681A6100BF1437BD4680BCA0
:1015FC007047000080B586B000AF78607B68002B28
:10160C0001D101236CE27B681B6803F00103002B02
:10161C0000F08780924B5B6803F00C03042B0CD01A
:10162C008F4B5B6803F00C03082B12D18C4B5B685F
:10163C0003F48033B3F5803F0BD1894B1B6803F463
:10164C000033002B6CD07B685B68002B68D10123C6
:10165C0046E27B685B68B3F5803F06D1804B1B6824
:10166C007F4A43F4803313602EE07B685B68002B69
:10167C000CD17B4B1B687A4A23F480331360784B74
:10168C001B68774A23F4802313601DE07B685B683A
:10169C00B3F5A02F0CD1724B1B68714A43F4802315
:1016AC0013606F4B1B686E4A43F4803313600BE07E
:1016BC006B4B1B686A4A23F480331360684B1B68BE
:1016CC00674A23F4802313607B685B68002B13D07C
:1016DC00FFF7CCFC386108E0FFF7C8FC02463B6919
:1016EC00D31A642B01D90323FAE15D4B1B6803F475
:1016FC000033002BF0D014E0FFF7B8FC386108E0A1
:10170C00FFF7B4FC02463B69D31A642B01D90323BF
:10171C00E6E1534B1B6803F40033002BF0D100E0DF
:10172C0000BF7B681B6803F00203002B63D04C4B9B
:10173C005B6803F00C03002B0BD0494B5B6803F088
:10174C000C03082B1CD1464B5B6803F48033002B35
:10175C0016D1434B1B6803F00203002B05D07B68AA
:10176C001B69012B01D00123BAE13D4B1B6823F00F
:10177C00F8027B685B69DB00394913430B603AE084
:10178C007B681B69002B20D0364B01221A60FFF7B7
:10179C006DFC386108E0FFF769FC02463B69D31A1F
:1017AC00022B01D903239BE12D4B1B6803F0020391
:1017BC00002BF0D02A4B1B6823F0F8027B685B6986
:1017CC00DB00274913430B6015E0264B00221A60FF
:1017DC00FFF74CFC386108E0FFF748FC02463B6918
:1017EC00D31A022B01D903237AE11D4B1B6803F09A
:1017FC000203002BF0D17B681B6803F00803002B5D
:10180C003AD07B689B69002B19D0174B01221A60C8
:10181C00FFF72CFC386108E0FFF728FC02463B6917
:10182C00D31A022B01D903235AE10D4B5B6A03F047
:10183C000203002BF0D0012000F09AFA1CE00A4BB6
:10184C0000221A60FFF712FC38610FE0FFF70EFC64
:10185C0002463B69D31A022B08D9032340E100BF8F
:10186C000010024000004242800442429E4B5B6AE0
:10187C0003F00203002BE9D17B681B6803F004031F
:10188C00002B00F0A6800023FB75974BDB6903F05F
:10189C008053002B0DD1944BDB69934A43F080535A
:1018AC00D361914BDB6903F08053BB60BB680123B0
:1018BC00FB758E4B1B6803F48073002B18D18B4B7C
:1018CC001B688A4A43F480731360FFF7CFFB3861BF
:1018DC0008E0FFF7CBFB02463B69D31A642B01D916
:1018EC000323FDE0814B1B6803F48073002BF0D0C5
:1018FC007B68DB68012B06D17B4B1B6A7A4A43F071
:10190C00010313622DE07B68DB68002B0CD1764B56
:10191C001B6A754A23F001031362734B1B6A724AEC
:10192C0023F0040313621CE07B68DB68052B0CD1ED
:10193C006D4B1B6A6C4A43F0040313626A4B1B6ABF
:10194C00694A43F0010313620BE0674B1B6A664A5A
:10195C0023F001031362644B1B6A634A23F00403F4
:10196C0013627B68DB68002B15D0FFF77FFB3861B7
:10197C000AE0FFF77BFB02463B69D31A41F288323F
:10198C00934201D90323ABE0574B1B6A03F00203CC
:10199C00002BEED014E0FFF769FB38610AE0FFF78B
:1019AC0065FB02463B69D31A41F28832934201D956
:1019BC00032395E04C4B1B6A03F00203002BEED182
:1019CC00FB7D012B05D1484BDB69474A23F0805343
:1019DC00D3617B68DB69002B00F08180424B5B6834
:1019EC0003F00C03082B61D07B68DB69022B46D11A
:1019FC003F4B00221A60FFF739FB386108E0FFF714
:101A0C0035FB02463B69D31A022B01D9032367E04D
:101A1C00354B1B6803F00073002BF0D17B681B6AFD
:101A2C00B3F5803F08D1304B5B6823F400327B6800
:101A3C009B682D4913434B602B4B5B6823F474124A
:101A4C007B68196A7B685B6A0B43274913434B60BD
:101A5C00274B01221A60FFF709FB386108E0FFF7FA
:101A6C0005FB02463B69D31A022B01D9032337E04D
:101A7C001D4B1B6803F00073002BF0D02FE01C4BA8
:101A8C0000221A60FFF7F2FA386108E0FFF7EEFA6D
:101A9C0002463B69D31A022B01D9032320E0124BD7
:101AAC001B6803F00073002BF0D118E07B68DB6936
:101ABC00012B01D1012313E00B4B5B68FB60FB682E
:101ACC0003F480327B681B6A9A4206D1FB6803F4EC
:101ADC0070127B685B6A9A4201D0012300E00023FC
:101AEC0018461837BD4680BD0010024000700040FB
:101AFC006000424280B584B000AF786039607B688A
:101B0C00002B01D10123D0E06A4B1B6803F00703C3
:101B1C003A689A4210D9674B1B6823F00702654953
:101B2C003B6813430B60634B1B6803F007033A6875
:101B3C009A4201D00123B8E07B681B6803F00203D2
:101B4C00002B20D07B681B6803F00403002B05D00E
:101B5C00594B5B68584A43F4E06353607B681B68DD
:101B6C0003F00803002B05D0534B5B68524A43F437
:101B7C0060535360504B5B6823F0F0027B689B68AA
:101B8C004D4913434B607B681B6803F00103002B2A
:101B9C0040D07B685B68012B07D1474B1B6803F473
:101BAC000033002B15D101237FE07B685B68022B8F
:101BBC0007D1414B1B6803F00073002B09D10123A3
:101BCC0073E03D4B1B6803F00203002B01D1012392
:101BDC006BE0394B5B6823F003027B685B6836492A
:101BEC0013434B60FFF742FAF8600AE0FFF73EFA46
:101BFC000246FB68D31A41F28832934201D903237F
:101C0C0053E02D4B5B6803F00C027B685B689B0018
:101C1C009A42EBD1274B1B6803F007033A689A42B0
:101C2C0010D2244B1B6823F0070222493B68134354
:101C3C000B60204B1B6803F007033A689A4201D0F3
:101C4C00012332E07B681B6803F00403002B08D0EF
:101C5C00194B5B6823F4E0627B68DB68164913431D
:101C6C004B607B681B6803F00803002B09D0124BF8
:101C7C005B6823F460527B681B69DB000E491343DD
:101C8C004B6000F021F802460B4B5B681B0903F01C
:101C9C000F030A49CB5C22FA03F3094A1360094B80
:101CAC001B681846FFF7A0F9002318461037BD46ED
:101CBC0080BD00BF0020024000100240F825000843
:101CCC00000000200400002080B487B000AF002387
:101CDC00FB600023BB6000237B6100237B6000233F
:101CEC003B611E4B5B68FB60FB6803F00C03042B31
:101CFC0002D0082B03D027E0194B3B6127E0FB688F
:101D0C009B0C03F00F03174AD35C7B60FB6803F456
:101D1C008033002B10D0114B5B685B0C03F001037C
:101D2C00114AD35CBB607B680D4A02FB03F2BB68B3
:101D3C00B2FBF3F37B6104E07B680C4A02FB03F318
:101D4C007B617B693B6102E0054B3B6100BF3B69FA
:101D5C0018461C37BD4680BC704700BF00100240BF
:101D6C0000127A00082600081826000800093D0019
:101D7C0080B485B000AF78600A4B1B680A4AA2FB9E
:101D8C0003235B0A7A6802FB03F3FB6000BFFB686A
:101D9C005A1EFA60002BF9D100BF00BF1437BD46A4
:101DAC0080BC704700000020D34D621080B582B01B
:101DBC0000AF78607B68002B01D1012341E07B6888
:101DCC0093F83D30DBB2002B06D17B68002283F800
:101DDC003C207868FFF770F87B68022283F83D207E
:101DEC007B681A687B6804331946104600F06EFA5B
:101DFC007B68012283F846207B68012283F83E2011
:101E0C007B68012283F83F207B68012283F8402005
:101E1C007B68012283F841207B68012283F84220F1
:101E2C007B68012283F843207B68012283F84420DD
:101E3C007B68012283F845207B68012283F83D20D2
:101E4C00002318460837BD4680BD000080B485B01D
:101E5C0000AF78607B6893F83D30DBB2012B01D08A
:101E6C00012335E07B68022283F83D207B681B68E8
:101E7C00DA687B681B6842F00102DA607B681B68D9
:101E8C00164A934209D07B681B68B3F1804F04D08B
:101E9C007B681B68124A934211D17B681B689B6854
:101EAC0003F00703FB60FB68062B10D07B681B68F4
:101EBC001A687B681B6842F001021A6007E07B68B5
:101ECC001B681A687B681B6842F001021A600023C9
:101EDC0018461437BD4680BC704700BF002C01402B
:101EEC000004004080B582B000AF78607B681B684E
:101EFC001B6903F00203022B22D17B681B68DB6891
:101F0C0003F00203022B1BD17B681B686FF00202EB
:101F1C001A617B6801221A777B681B689B6903F046
:101F2C000303002B03D0786800F0B4F905E078685F
:101F3C0000F0A7F9786800F0B6F97B6800221A77F0
:101F4C007B681B681B6903F00403042B22D17B689C
:101F5C001B68DB6803F00403042B1BD17B681B6834
:101F6C006FF004021A617B6802221A777B681B6887
:101F7C009B6903F44073002B03D0786800F08AF956
:101F8C0005E0786800F07DF9786800F08CF97B68E2
:101F9C0000221A777B681B681B6903F00803082B67
:101FAC0022D17B681B68DB6803F00803082B1BD16C
:101FBC007B681B686FF008021A617B6804221A7731
:101FCC007B681B68DB6903F00303002B03D0786884
:101FDC0000F060F905E0786800F053F9786800F0DB
:101FEC0062F97B6800221A777B681B681B6903F017
:101FFC001003102B22D17B681B68DB6803F01003E5
:10200C00102B1BD17B681B686FF010021A617B6868
:10201C0008221A777B681B68DB6903F44073002B7A
:10202C0003D0786800F036F905E0786800F029F9FB
:10203C00786800F038F97B6800221A777B681B6897
:10204C001B6903F00103012B0ED17B681B68DB6855
:10205C0003F00103012B07D17B681B686FF00102B1
:10206C001A617868FEF7F0FD7B681B681B6903F04A
:10207C008003802B0ED17B681B68DB6803F0800328
:10208C00802B07D17B681B686FF080021A6178681F
:10209C0000F06BFA7B681B681B6903F04003402B54
:1020AC000ED17B681B68DB6803F04003402B07D123
:1020BC007B681B686FF040021A61786800F0FCF8CE
:1020CC007B681B681B6903F02003202B0ED17B68F7
:1020DC001B68DB6803F02003202B07D17B681B688F
:1020EC006FF020021A61786800F036FA00BF0837EA
:1020FC00BD4680BD80B584B000AF786039600023E8
:10210C00FB737B6893F83C30012B01D10223B4E0C4
:10211C007B68012283F83C207B68022283F83D20F7
:10212C007B681B689B68BB60BB6823F07703BB6054
:10213C00BB6823F47F43BB607B681B68BA689A60FA
:10214C003B681B68B3F5005F3ED0B3F5005F00F24F
:10215C008780B3F5805F00F08680B3F5805F7FD811
:10216C00702B1AD0702B7BD8602B50D0602B77D86B
:10217C00502B3CD0502B73D8402B58D0402B6FD8C1
:10218C00302B64D0302B6BD8202B60D0202B67D811
:10219C00002B5CD0102B5AD062E07B6818683B682F
:1021AC0099683B685A683B68DB6800F05EF97B68AD
:1021BC001B689B68BB60BB6843F07703BB607B68A4
:1021CC001B68BA689A604FE07B6818683B6899682E
:1021DC003B685A683B68DB6800F047F97B681B6812
:1021EC009A687B681B6842F480429A603CE07B688A
:1021FC0018683B6859683B68DB681A4600F0BEF803
:10220C007B681B685021184600F015F92CE07B68A0
:10221C0018683B6859683B68DB681A4600F0DCF8C4
:10222C007B681B686021184600F005F91CE07B6890
:10223C0018683B6859683B68DB681A4600F09EF8E2
:10224C007B681B684021184600F0F5F80CE07B68B1
:10225C001A683B681B681946104600F0ECF803E05E
:10226C000123FB7300E000BF7B68012283F83D2053
:10227C007B68002283F83C20FB7B18461037BD4658
:10228C0080BD80B483B000AF786000BF0C37BD4612
:10229C0080BC704780B483B000AF786000BF0C374F
:1022AC00BD4680BC704780B483B000AF786000BF7F
:1022BC000C37BD4680BC704780B483B000AF7860EB
:1022CC0000BF0C37BD4680BC7047000080B485B0A1
:1022DC0000AF786039607B681B68FB607B68254ABF
:1022EC00934207D07B68B3F1804F03D07B68224ABE
:1022FC00934208D1FB6823F07003FB603B685B687A
:10230C00FA681343FB607B681A4A934207D07B68D8
:10231C00B3F1804F03D07B68174A934208D1FB6816
:10232C0023F44073FB603B68DB68FA681343FB6083
:10233C00FB6823F080023B685B691343FB607B689E
:10234C00FA681A603B689A687B68DA623B681A68BC
:10235C007B689A627B68074A934203D13B681A698F
:10236C007B681A637B6801225A6100BF1437BD4633
:10237C0080BC7047002C01400004004080B487B042
:10238C0000AFF860B9607A60FB681B6A7B61FB6820
:10239C001B6A23F00102FB681A62FB689B693B61B4
:1023AC003B6923F0F0033B617B681B013A691343E3
:1023BC003B617B6923F00A037B617A69BB68134339
:1023CC007B61FB683A699A61FB687A691A6200BFA3
:1023DC001C37BD4680BC704780B487B000AFF86036
:1023EC00B9607A60FB681B6A7B61FB681B6A23F02F
:1023FC001002FB681A62FB689B693B613B6923F422
:10240C0070433B617B681B033A6913433B617B69F7
:10241C0023F0A0037B61BB681B017A6913437B61CA
:10242C00FB683A699A61FB687A691A6200BF1C37CB
:10243C00BD4680BC704780B485B000AF7860396011
:10244C007B689B68FB60FB6823F07003FB603A6859
:10245C00FB68134343F00703FB607B68FA689A60E0
:10246C0000BF1437BD4680BC704780B487B000AF46
:10247C00F860B9607A603B60FB689B687B617B6944
:10248C0023F47F437B613B681A027B681A43BB6869
:10249C0013437A6913437B61FB687A699A6000BFC6
:1024AC001C37BD4680BC704780B485B000AF7860E7
:1024BC0039607B6893F83C30012B01D1022341E059
:1024CC007B68012283F83C207B68022283F83D2044
:1024DC007B681B685B68FB607B681B689B68BB60E8
:1024EC00FB6823F07003FB603B681B68FA681343BE
:1024FC00FB607B681B68FA685A607B681B68144A2F
:10250C00934209D07B681B68B3F1804F04D07B6881
:10251C001B68104A93420CD1BB6823F08003BB604C
:10252C003B685B68BA681343BB607B681B68BA681E
:10253C009A607B68012283F83D207B68002283F837
:10254C003C20002318461437BD4680BC704700BFA2
:10255C00002C01400004004080B483B000AF7860D0
:10256C0000BF0C37BD4680BC704780B483B000AF51
:10257C00786000BF0C37BD4680BC704770B5002634
:10258C000C4D0D4C641BA410A64209D100F022F88E
:10259C0000260A4D0A4C641BA410A64205D170BD3E
:1025AC0055F8043B98470136EEE755F8043B98473D
:1025BC000136F2E71C2600081C2600081C26000821
:1025CC002026000803460244934200D1704703F8CA
:1025DC00011BF9E7F8B500BFF8BC08BC9E46704774
:0C25EC00F8B500BFF8BC08BC9E46704764
:1025F80000000000000000000102030406070809AB
:1026080002030405060708090A0B0C0D0E0F10102B
:0426180001020000BB
:04261C003101000880
:042620000D010008A0
:0C2624000024F400100000000100000081
:0400000508000F7D63
:00000001FF
